{
    "_format": "hh-sol-artifact-1",
    "contractName": "Custodian",
    "sourceName": "contracts/Custodian.sol",
    "abi": [
        {
            "inputs": [
                {
                    "internalType": "contract ILPToken",
                    "name": "_lpToken",
                    "type": "address"
                },
                {
                    "internalType": "contract IERC20",
                    "name": "_usdc",
                    "type": "address"
                },
                {
                    "internalType": "contract IERC20",
                    "name": "_aUsdc",
                    "type": "address"
                },
                {
                    "internalType": "contract IPoolAddressesProvider",
                    "name": "_aaveAddresses",
                    "type": "address"
                }
            ],
            "stateMutability": "nonpayable",
            "type": "constructor"
        },
        {
            "anonymous": false,
            "inputs": [
                {
                    "indexed": true,
                    "internalType": "address",
                    "name": "onBehalfOf",
                    "type": "address"
                },
                {
                    "indexed": false,
                    "internalType": "uint256",
                    "name": "amount",
                    "type": "uint256"
                }
            ],
            "name": "Deposit",
            "type": "event"
        },
        {
            "anonymous": false,
            "inputs": [
                {
                    "indexed": true,
                    "internalType": "address",
                    "name": "redeemer",
                    "type": "address"
                },
                {
                    "indexed": false,
                    "internalType": "uint256",
                    "name": "lpAmount",
                    "type": "uint256"
                },
                {
                    "indexed": false,
                    "internalType": "uint256",
                    "name": "usdcAmount",
                    "type": "uint256"
                }
            ],
            "name": "LpRedeemed",
            "type": "event"
        },
        {
            "anonymous": false,
            "inputs": [
                {
                    "indexed": true,
                    "internalType": "address",
                    "name": "previousOwner",
                    "type": "address"
                },
                {
                    "indexed": true,
                    "internalType": "address",
                    "name": "newOwner",
                    "type": "address"
                }
            ],
            "name": "OwnershipTransferred",
            "type": "event"
        },
        {
            "anonymous": false,
            "inputs": [
                {
                    "indexed": false,
                    "internalType": "uint256",
                    "name": "amount",
                    "type": "uint256"
                }
            ],
            "name": "WithdrawalToSafe",
            "type": "event"
        },
        {
            "stateMutability": "payable",
            "type": "fallback"
        },
        {
            "inputs": [],
            "name": "aUsdc",
            "outputs": [
                {
                    "internalType": "contract IERC20",
                    "name": "",
                    "type": "address"
                }
            ],
            "stateMutability": "view",
            "type": "function"
        },
        {
            "inputs": [],
            "name": "aaveAddresses",
            "outputs": [
                {
                    "internalType": "contract IPoolAddressesProvider",
                    "name": "",
                    "type": "address"
                }
            ],
            "stateMutability": "view",
            "type": "function"
        },
        {
            "inputs": [],
            "name": "aavePool",
            "outputs": [
                {
                    "internalType": "contract IAavePool",
                    "name": "",
                    "type": "address"
                }
            ],
            "stateMutability": "view",
            "type": "function"
        },
        {
            "inputs": [
                {
                    "internalType": "uint256",
                    "name": "usdcAmount",
                    "type": "uint256"
                }
            ],
            "name": "calculateNewUsdcToLp",
            "outputs": [
                {
                    "internalType": "uint256",
                    "name": "",
                    "type": "uint256"
                }
            ],
            "stateMutability": "view",
            "type": "function"
        },
        {
            "inputs": [
                {
                    "internalType": "uint256",
                    "name": "lpAmount",
                    "type": "uint256"
                }
            ],
            "name": "convertLpToUsdc",
            "outputs": [
                {
                    "internalType": "uint256",
                    "name": "",
                    "type": "uint256"
                }
            ],
            "stateMutability": "view",
            "type": "function"
        },
        {
            "inputs": [
                {
                    "internalType": "uint256",
                    "name": "usdcAmount",
                    "type": "uint256"
                }
            ],
            "name": "convertUsdcToLp",
            "outputs": [
                {
                    "internalType": "uint256",
                    "name": "",
                    "type": "uint256"
                }
            ],
            "stateMutability": "view",
            "type": "function"
        },
        {
            "inputs": [],
            "name": "defiBalance",
            "outputs": [
                {
                    "internalType": "uint256",
                    "name": "",
                    "type": "uint256"
                }
            ],
            "stateMutability": "view",
            "type": "function"
        },
        {
            "inputs": [
                {
                    "internalType": "uint256",
                    "name": "usdcAmount",
                    "type": "uint256"
                },
                {
                    "internalType": "address",
                    "name": "onBehalfOf",
                    "type": "address"
                }
            ],
            "name": "deposit",
            "outputs": [],
            "stateMutability": "nonpayable",
            "type": "function"
        },
        {
            "inputs": [],
            "name": "getAvailableBalance",
            "outputs": [
                {
                    "internalType": "uint256",
                    "name": "",
                    "type": "uint256"
                }
            ],
            "stateMutability": "view",
            "type": "function"
        },
        {
            "inputs": [
                {
                    "internalType": "address",
                    "name": "user",
                    "type": "address"
                }
            ],
            "name": "getPoolData",
            "outputs": [
                {
                    "internalType": "address",
                    "name": "",
                    "type": "address"
                },
                {
                    "internalType": "uint256",
                    "name": "",
                    "type": "uint256"
                },
                {
                    "internalType": "uint256",
                    "name": "",
                    "type": "uint256"
                },
                {
                    "internalType": "uint256",
                    "name": "",
                    "type": "uint256"
                },
                {
                    "internalType": "uint256",
                    "name": "",
                    "type": "uint256"
                },
                {
                    "internalType": "uint256",
                    "name": "",
                    "type": "uint256"
                },
                {
                    "internalType": "uint256",
                    "name": "",
                    "type": "uint256"
                }
            ],
            "stateMutability": "view",
            "type": "function"
        },
        {
            "inputs": [],
            "name": "getTotalBalance",
            "outputs": [
                {
                    "internalType": "uint256",
                    "name": "",
                    "type": "uint256"
                }
            ],
            "stateMutability": "view",
            "type": "function"
        },
        {
            "inputs": [],
            "name": "investedBalance",
            "outputs": [
                {
                    "internalType": "uint256",
                    "name": "",
                    "type": "uint256"
                }
            ],
            "stateMutability": "view",
            "type": "function"
        },
        {
            "inputs": [],
            "name": "lpToken",
            "outputs": [
                {
                    "internalType": "contract ILPToken",
                    "name": "",
                    "type": "address"
                }
            ],
            "stateMutability": "view",
            "type": "function"
        },
        {
            "inputs": [],
            "name": "owner",
            "outputs": [
                {
                    "internalType": "address",
                    "name": "",
                    "type": "address"
                }
            ],
            "stateMutability": "view",
            "type": "function"
        },
        {
            "inputs": [
                {
                    "internalType": "uint256",
                    "name": "lpAmount",
                    "type": "uint256"
                }
            ],
            "name": "redeem",
            "outputs": [],
            "stateMutability": "nonpayable",
            "type": "function"
        },
        {
            "inputs": [
                {
                    "internalType": "uint256",
                    "name": "amount",
                    "type": "uint256"
                }
            ],
            "name": "registerRepayment",
            "outputs": [],
            "stateMutability": "nonpayable",
            "type": "function"
        },
        {
            "inputs": [],
            "name": "renounceOwnership",
            "outputs": [],
            "stateMutability": "nonpayable",
            "type": "function"
        },
        {
            "inputs": [],
            "name": "repaymentPool",
            "outputs": [
                {
                    "internalType": "contract IRepaymentPool",
                    "name": "",
                    "type": "address"
                }
            ],
            "stateMutability": "view",
            "type": "function"
        },
        {
            "inputs": [],
            "name": "reserveBalance",
            "outputs": [
                {
                    "internalType": "uint256",
                    "name": "",
                    "type": "uint256"
                }
            ],
            "stateMutability": "view",
            "type": "function"
        },
        {
            "inputs": [
                {
                    "internalType": "contract IRepaymentPool",
                    "name": "_repaymentPool",
                    "type": "address"
                }
            ],
            "name": "setRepaymentPool",
            "outputs": [],
            "stateMutability": "nonpayable",
            "type": "function"
        },
        {
            "inputs": [
                {
                    "internalType": "address",
                    "name": "newOwner",
                    "type": "address"
                }
            ],
            "name": "transferOwnership",
            "outputs": [],
            "stateMutability": "nonpayable",
            "type": "function"
        },
        {
            "inputs": [],
            "name": "usdc",
            "outputs": [
                {
                    "internalType": "contract IERC20",
                    "name": "",
                    "type": "address"
                }
            ],
            "stateMutability": "view",
            "type": "function"
        },
        {
            "inputs": [
                {
                    "internalType": "uint256",
                    "name": "usdcAmount",
                    "type": "uint256"
                }
            ],
            "name": "withdrawToSafe",
            "outputs": [],
            "stateMutability": "nonpayable",
            "type": "function"
        },
        {
            "stateMutability": "payable",
            "type": "receive"
        }
    ],
    "bytecode": "0x6101206040523480156200001257600080fd5b50604051620030283803806200302883398181016040528101906200003891906200034b565b620000586200004c620001f760201b60201c565b620001ff60201b60201c565b8373ffffffffffffffffffffffffffffffffffffffff1660808173ffffffffffffffffffffffffffffffffffffffff1660601b815250508273ffffffffffffffffffffffffffffffffffffffff1660a08173ffffffffffffffffffffffffffffffffffffffff1660601b815250508173ffffffffffffffffffffffffffffffffffffffff1660c08173ffffffffffffffffffffffffffffffffffffffff1660601b815250508073ffffffffffffffffffffffffffffffffffffffff1660e08173ffffffffffffffffffffffffffffffffffffffff1660601b815250508073ffffffffffffffffffffffffffffffffffffffff1663026b1d5f6040518163ffffffff1660e01b815260040160206040518083038186803b1580156200017b57600080fd5b505afa15801562000190573d6000803e3d6000fd5b505050506040513d601f19601f82011682018060405250810190620001b691906200031f565b73ffffffffffffffffffffffffffffffffffffffff166101008173ffffffffffffffffffffffffffffffffffffffff1660601b81525050505050506200048f565b600033905090565b60008060009054906101000a900473ffffffffffffffffffffffffffffffffffffffff169050816000806101000a81548173ffffffffffffffffffffffffffffffffffffffff021916908373ffffffffffffffffffffffffffffffffffffffff1602179055508173ffffffffffffffffffffffffffffffffffffffff168173ffffffffffffffffffffffffffffffffffffffff167f8be0079c531659141344cd1fd0a4f28419497f9722a3daafe3b4186f6b6457e060405160405180910390a35050565b600081519050620002d48162000427565b92915050565b600081519050620002eb8162000441565b92915050565b60008151905062000302816200045b565b92915050565b600081519050620003198162000475565b92915050565b6000602082840312156200033257600080fd5b60006200034284828501620002c3565b91505092915050565b600080600080608085870312156200036257600080fd5b60006200037287828801620002f1565b94505060206200038587828801620002da565b93505060406200039887828801620002da565b9250506060620003ab8782880162000308565b91505092959194509250565b6000620003c48262000407565b9050919050565b6000620003d882620003b7565b9050919050565b6000620003ec82620003b7565b9050919050565b60006200040082620003b7565b9050919050565b600073ffffffffffffffffffffffffffffffffffffffff82169050919050565b6200043281620003b7565b81146200043e57600080fd5b50565b6200044c81620003cb565b81146200045857600080fd5b50565b6200046681620003df565b81146200047257600080fd5b50565b6200048081620003f3565b81146200048c57600080fd5b50565b60805160601c60a05160601c60c05160601c60e05160601c6101005160601c612ab96200056f60003960008181610f57015281816116bd0152818161174f015281816119f50152611a87015260006107ea015260008181610a2c01528181610ea901526116810152600081816109e401528181610aa601528181610f7d01528181611141015281816113260152818161178b015281816119b90152611ac30152600081816106690152818161072301528181610811015281816108fc01528181610a0801528181610aed01528181610d9001526112940152612ab96000f3fe6080604052600436106101445760003560e01c8063715018a6116100b6578063a03e4bc31161006f578063a03e4bc31461045c578063a10954fe14610487578063b1d8e8de146104b2578063c9168a59146104db578063db006a7514610506578063f2fde38b1461052f5761014b565b8063715018a61461035e57806376806aa014610375578063809dab6a1461039e5780638da5cb5b146103c95780639ad5b505146103f45780639b0fd24d146104315761014b565b80633a74f423116101085780633a74f4231461024c5780633e413bee146102895780635fcbd285146102b457806365196e1e146102df5780636e553f651461030a5780636ff41f33146103335761014b565b806304d05ab21461014d57806312b583491461017657806313d21cdf146101a15780631b8fefe6146101e4578063260de2151461020f5761014b565b3661014b57005b005b34801561015957600080fd5b50610174600480360381019061016f9190611dd4565b610558565b005b34801561018257600080fd5b5061018b61061b565b604051610198919061244b565b60405180910390f35b3480156101ad57600080fd5b506101c860048036038101906101c39190611d59565b610637565b6040516101db97969594939291906121d3565b60405180910390f35b3480156101f057600080fd5b506101f96107e8565b6040516102069190612293565b60405180910390f35b34801561021b57600080fd5b5061023660048036038101906102319190611dd4565b61080c565b604051610243919061244b565b60405180910390f35b34801561025857600080fd5b50610273600480360381019061026e9190611dd4565b6108f7565b604051610280919061244b565b60405180910390f35b34801561029557600080fd5b5061029e6109e2565b6040516102ab919061225d565b60405180910390f35b3480156102c057600080fd5b506102c9610a06565b6040516102d69190612278565b60405180910390f35b3480156102eb57600080fd5b506102f4610a2a565b604051610301919061225d565b60405180910390f35b34801561031657600080fd5b50610331600480360381019061032c9190611e26565b610a4e565b005b34801561033f57600080fd5b50610348610bd3565b60405161035591906122ae565b60405180910390f35b34801561036a57600080fd5b50610373610bf9565b005b34801561038157600080fd5b5061039c60048036038101906103979190611dab565b610c81565b005b3480156103aa57600080fd5b506103b3610d41565b6040516103c0919061244b565b60405180910390f35b3480156103d557600080fd5b506103de610d62565b6040516103eb91906120dc565b60405180910390f35b34801561040057600080fd5b5061041b60048036038101906104169190611dd4565b610d8b565b604051610428919061244b565b60405180910390f35b34801561043d57600080fd5b50610446610ea5565b604051610453919061244b565b60405180910390f35b34801561046857600080fd5b50610471610f55565b60405161047e9190612242565b60405180910390f35b34801561049357600080fd5b5061049c610f79565b6040516104a9919061244b565b60405180910390f35b3480156104be57600080fd5b506104d960048036038101906104d49190611dd4565b611029565b005b3480156104e757600080fd5b506104f06111c7565b6040516104fd919061244b565b60405180910390f35b34801561051257600080fd5b5061052d60048036038101906105289190611dd4565b6111cd565b005b34801561053b57600080fd5b5061055660048036038101906105519190611d59565b6113c6565b005b600160009054906101000a900473ffffffffffffffffffffffffffffffffffffffff1673ffffffffffffffffffffffffffffffffffffffff163373ffffffffffffffffffffffffffffffffffffffff16146105e8576040517f08c379a00000000000000000000000000000000000000000000000000000000081526004016105df9061234b565b60405180910390fd5b6002548111156105fe5760006002819055610617565b806002600082825461061091906125a2565b9250508190555b5050565b6000600254610628610d41565b61063291906124c1565b905090565b600080600080600080600080309050600061065061061b565b9050600061065c610d41565b90506000600254905060007f000000000000000000000000000000000000000000000000000000000000000073ffffffffffffffffffffffffffffffffffffffff166370a082318e6040518263ffffffff1660e01b81526004016106c091906120dc565b60206040518083038186803b1580156106d857600080fd5b505afa1580156106ec573d6000803e3d6000fd5b505050506040513d601f19601f820116820180604052508101906107109190611dfd565b9050600061071d826108f7565b905060007f000000000000000000000000000000000000000000000000000000000000000073ffffffffffffffffffffffffffffffffffffffff166318160ddd6040518163ffffffff1660e01b815260040160206040518083038186803b15801561078757600080fd5b505afa15801561079b573d6000803e3d6000fd5b505050506040513d601f19601f820116820180604052508101906107bf9190611dfd565b9050868686868487879d509d509d509d509d509d509d5050505050505050919395979092949650565b7f000000000000000000000000000000000000000000000000000000000000000081565b6000807f000000000000000000000000000000000000000000000000000000000000000073ffffffffffffffffffffffffffffffffffffffff166318160ddd6040518163ffffffff1660e01b815260040160206040518083038186803b15801561087557600080fd5b505afa158015610889573d6000803e3d6000fd5b505050506040513d601f19601f820116820180604052508101906108ad9190611dfd565b905060006108b961061b565b9050620f4240816108ca9190612548565b620f424085846108da9190612548565b6108e49190612548565b6108ee9190612517565b92505050919050565b6000807f000000000000000000000000000000000000000000000000000000000000000073ffffffffffffffffffffffffffffffffffffffff166318160ddd6040518163ffffffff1660e01b815260040160206040518083038186803b15801561096057600080fd5b505afa158015610974573d6000803e3d6000fd5b505050506040513d601f19601f820116820180604052508101906109989190611dfd565b905060006109a461061b565b9050620f4240826109b59190612548565b620f424085836109c59190612548565b6109cf9190612548565b6109d99190612517565b92505050919050565b7f000000000000000000000000000000000000000000000000000000000000000081565b7f000000000000000000000000000000000000000000000000000000000000000081565b7f000000000000000000000000000000000000000000000000000000000000000081565b60008211610a91576040517f08c379a0000000000000000000000000000000000000000000000000000000008152600401610a88906123ab565b60405180910390fd5b6000610a9c83610d8b565b9050610aeb3330857f000000000000000000000000000000000000000000000000000000000000000073ffffffffffffffffffffffffffffffffffffffff166114be909392919063ffffffff16565b7f000000000000000000000000000000000000000000000000000000000000000073ffffffffffffffffffffffffffffffffffffffff166340c10f1983836040518363ffffffff1660e01b8152600401610b4692919061212e565b600060405180830381600087803b158015610b6057600080fd5b505af1158015610b74573d6000803e3d6000fd5b50505050610b80611547565b8173ffffffffffffffffffffffffffffffffffffffff167fe1fffcc4923d04b559f4d29a8bfc6cda04eb5b0d3c460751c2402c5c5cc9109c84604051610bc6919061244b565b60405180910390a2505050565b600160009054906101000a900473ffffffffffffffffffffffffffffffffffffffff1681565b610c01611569565b73ffffffffffffffffffffffffffffffffffffffff16610c1f610d62565b73ffffffffffffffffffffffffffffffffffffffff1614610c75576040517f08c379a0000000000000000000000000000000000000000000000000000000008152600401610c6c9061238b565b60405180910390fd5b610c7f6000611571565b565b610c89611569565b73ffffffffffffffffffffffffffffffffffffffff16610ca7610d62565b73ffffffffffffffffffffffffffffffffffffffff1614610cfd576040517f08c379a0000000000000000000000000000000000000000000000000000000008152600401610cf49061238b565b60405180910390fd5b80600160006101000a81548173ffffffffffffffffffffffffffffffffffffffff021916908373ffffffffffffffffffffffffffffffffffffffff16021790555050565b6000610d4b610ea5565b610d53610f79565b610d5d91906124c1565b905090565b60008060009054906101000a900473ffffffffffffffffffffffffffffffffffffffff16905090565b6000807f000000000000000000000000000000000000000000000000000000000000000073ffffffffffffffffffffffffffffffffffffffff166318160ddd6040518163ffffffff1660e01b815260040160206040518083038186803b158015610df457600080fd5b505afa158015610e08573d6000803e3d6000fd5b505050506040513d601f19601f82011682018060405250810190610e2c9190611dfd565b90506000811415610e405782915050610ea0565b6000610e4a61061b565b905060008482610e5a91906124c1565b620f424086610e699190612548565b610e739190612517565b905080620f4240610e8491906125a2565b8382610e909190612548565b610e9a9190612517565b93505050505b919050565b60007f000000000000000000000000000000000000000000000000000000000000000073ffffffffffffffffffffffffffffffffffffffff166370a08231306040518263ffffffff1660e01b8152600401610f0091906120dc565b60206040518083038186803b158015610f1857600080fd5b505afa158015610f2c573d6000803e3d6000fd5b505050506040513d601f19601f82011682018060405250810190610f509190611dfd565b905090565b7f000000000000000000000000000000000000000000000000000000000000000081565b60007f000000000000000000000000000000000000000000000000000000000000000073ffffffffffffffffffffffffffffffffffffffff166370a08231306040518263ffffffff1660e01b8152600401610fd491906120dc565b60206040518083038186803b158015610fec57600080fd5b505afa158015611000573d6000803e3d6000fd5b505050506040513d601f19601f820116820180604052508101906110249190611dfd565b905090565b611031611569565b73ffffffffffffffffffffffffffffffffffffffff1661104f610d62565b73ffffffffffffffffffffffffffffffffffffffff16146110a5576040517f08c379a000000000000000000000000000000000000000000000000000000000815260040161109c9061238b565b60405180910390fd5b806110ae610f79565b101561111a576110bc610d41565b8111156110fe576040517f08c379a00000000000000000000000000000000000000000000000000000000081526004016110f59061232b565b60405180910390fd5b611119611109610f79565b8261111491906125a2565b611635565b5b806002600082825461112c91906124c1565b9250508190555061118561113e610d62565b827f000000000000000000000000000000000000000000000000000000000000000073ffffffffffffffffffffffffffffffffffffffff166118209092919063ffffffff16565b61118d611547565b7fa2628e9b67040f41a62bc020f631cc54520ed266ece3dcf7bc6457ffa57425d4816040516111bc919061244b565b60405180910390a150565b60025481565b60008111611210576040517f08c379a00000000000000000000000000000000000000000000000000000000081526004016112079061230b565b60405180910390fd5b600061121b826108f7565b905080611226610f79565b101561129257611234610d41565b811115611276576040517f08c379a000000000000000000000000000000000000000000000000000000000815260040161126d9061232b565b60405180910390fd5b611291611281610f79565b8261128c91906125a2565b611635565b5b7f000000000000000000000000000000000000000000000000000000000000000073ffffffffffffffffffffffffffffffffffffffff166379cc679033846040518363ffffffff1660e01b81526004016112ed92919061212e565b600060405180830381600087803b15801561130757600080fd5b505af115801561131b573d6000803e3d6000fd5b5050505061136a33827f000000000000000000000000000000000000000000000000000000000000000073ffffffffffffffffffffffffffffffffffffffff166118209092919063ffffffff16565b611372611547565b3373ffffffffffffffffffffffffffffffffffffffff167f6c0ce15e185042b25771fbd4f6fcbf7f7f608ee1cbb48cee206aa81836196c5683836040516113ba929190612466565b60405180910390a25050565b6113ce611569565b73ffffffffffffffffffffffffffffffffffffffff166113ec610d62565b73ffffffffffffffffffffffffffffffffffffffff1614611442576040517f08c379a00000000000000000000000000000000000000000000000000000000081526004016114399061238b565b60405180910390fd5b600073ffffffffffffffffffffffffffffffffffffffff168173ffffffffffffffffffffffffffffffffffffffff1614156114b2576040517f08c379a00000000000000000000000000000000000000000000000000000000081526004016114a9906122eb565b60405180910390fd5b6114bb81611571565b50565b611541846323b872dd60e01b8585856040516024016114df939291906120f7565b604051602081830303815290604052907bffffffffffffffffffffffffffffffffffffffffffffffffffffffff19166020820180517bffffffffffffffffffffffffffffffffffffffffffffffffffffffff83818316178352505050506118a6565b50505050565b6000611551610f79565b90506000811115611566576115658161196d565b5b50565b600033905090565b60008060009054906101000a900473ffffffffffffffffffffffffffffffffffffffff169050816000806101000a81548173ffffffffffffffffffffffffffffffffffffffff021916908373ffffffffffffffffffffffffffffffffffffffff1602179055508173ffffffffffffffffffffffffffffffffffffffff168173ffffffffffffffffffffffffffffffffffffffff167f8be0079c531659141344cd1fd0a4f28419497f9722a3daafe3b4186f6b6457e060405160405180910390a35050565b8061163e610ea5565b101561167f576040517f08c379a00000000000000000000000000000000000000000000000000000000081526004016116769061240b565b60405180910390fd5b7f000000000000000000000000000000000000000000000000000000000000000073ffffffffffffffffffffffffffffffffffffffff1663095ea7b37f0000000000000000000000000000000000000000000000000000000000000000836040518363ffffffff1660e01b81526004016116fa92919061212e565b602060405180830381600087803b15801561171457600080fd5b505af1158015611728573d6000803e3d6000fd5b505050506040513d601f19601f8201168201806040525081019061174c9190611d82565b507f000000000000000000000000000000000000000000000000000000000000000073ffffffffffffffffffffffffffffffffffffffff166369328dec7f000000000000000000000000000000000000000000000000000000000000000083306040518463ffffffff1660e01b81526004016117ca93929190612157565b602060405180830381600087803b1580156117e457600080fd5b505af11580156117f8573d6000803e3d6000fd5b505050506040513d601f19601f8201168201806040525081019061181c9190611dfd565b5050565b6118a18363a9059cbb60e01b848460405160240161183f92919061212e565b604051602081830303815290604052907bffffffffffffffffffffffffffffffffffffffffffffffffffffffff19166020820180517bffffffffffffffffffffffffffffffffffffffffffffffffffffffff83818316178352505050506118a6565b505050565b6000611908826040518060400160405280602081526020017f5361666545524332303a206c6f772d6c6576656c2063616c6c206661696c65648152508573ffffffffffffffffffffffffffffffffffffffff16611b3a9092919063ffffffff16565b905060008151111561196857808060200190518101906119289190611d82565b611967576040517f08c379a000000000000000000000000000000000000000000000000000000000815260040161195e9061242b565b60405180910390fd5b5b505050565b611975610f79565b8111156119b7576040517f08c379a00000000000000000000000000000000000000000000000000000000081526004016119ae906123cb565b60405180910390fd5b7f000000000000000000000000000000000000000000000000000000000000000073ffffffffffffffffffffffffffffffffffffffff1663095ea7b37f0000000000000000000000000000000000000000000000000000000000000000836040518363ffffffff1660e01b8152600401611a3292919061212e565b602060405180830381600087803b158015611a4c57600080fd5b505af1158015611a60573d6000803e3d6000fd5b505050506040513d601f19601f82011682018060405250810190611a849190611d82565b507f000000000000000000000000000000000000000000000000000000000000000073ffffffffffffffffffffffffffffffffffffffff1663617ba0377f0000000000000000000000000000000000000000000000000000000000000000833060006040518563ffffffff1660e01b8152600401611b05949392919061218e565b600060405180830381600087803b158015611b1f57600080fd5b505af1158015611b33573d6000803e3d6000fd5b5050505050565b6060611b498484600085611b52565b90509392505050565b606082471015611b97576040517f08c379a0000000000000000000000000000000000000000000000000000000008152600401611b8e9061236b565b60405180910390fd5b611ba085611c66565b611bdf576040517f08c379a0000000000000000000000000000000000000000000000000000000008152600401611bd6906123eb565b60405180910390fd5b6000808673ffffffffffffffffffffffffffffffffffffffff168587604051611c0891906120c5565b60006040518083038185875af1925050503d8060008114611c45576040519150601f19603f3d011682016040523d82523d6000602084013e611c4a565b606091505b5091509150611c5a828286611c89565b92505050949350505050565b6000808273ffffffffffffffffffffffffffffffffffffffff163b119050919050565b60608315611c9957829050611ce9565b600083511115611cac5782518084602001fd5b816040517f08c379a0000000000000000000000000000000000000000000000000000000008152600401611ce091906122c9565b60405180910390fd5b9392505050565b600081359050611cff81612a27565b92915050565b600081519050611d1481612a3e565b92915050565b600081359050611d2981612a55565b92915050565b600081359050611d3e81612a6c565b92915050565b600081519050611d5381612a6c565b92915050565b600060208284031215611d6b57600080fd5b6000611d7984828501611cf0565b91505092915050565b600060208284031215611d9457600080fd5b6000611da284828501611d05565b91505092915050565b600060208284031215611dbd57600080fd5b6000611dcb84828501611d1a565b91505092915050565b600060208284031215611de657600080fd5b6000611df484828501611d2f565b91505092915050565b600060208284031215611e0f57600080fd5b6000611e1d84828501611d44565b91505092915050565b60008060408385031215611e3957600080fd5b6000611e4785828601611d2f565b9250506020611e5885828601611cf0565b9150509250929050565b611e6b816125d6565b82525050565b6000611e7c8261248f565b611e8681856124a5565b9350611e96818560208601612704565b80840191505092915050565b611eab8161263e565b82525050565b611eba81612662565b82525050565b611ec981612686565b82525050565b611ed8816126aa565b82525050565b611ee7816126ce565b82525050565b611ef6816126f2565b82525050565b6000611f078261249a565b611f1181856124b0565b9350611f21818560208601612704565b611f2a81612795565b840191505092915050565b6000611f426026836124b0565b9150611f4d826127a6565b604082019050919050565b6000611f65600e836124b0565b9150611f70826127f5565b602082019050919050565b6000611f886015836124b0565b9150611f938261281e565b602082019050919050565b6000611fab601c836124b0565b9150611fb682612847565b602082019050919050565b6000611fce6026836124b0565b9150611fd982612870565b604082019050919050565b6000611ff16020836124b0565b9150611ffc826128bf565b602082019050919050565b60006120146013836124b0565b915061201f826128e8565b602082019050919050565b60006120376026836124b0565b915061204282612911565b604082019050919050565b600061205a601d836124b0565b915061206582612960565b602082019050919050565b600061207d6027836124b0565b915061208882612989565b604082019050919050565b60006120a0602a836124b0565b91506120ab826129d8565b604082019050919050565b6120bf81612634565b82525050565b60006120d18284611e71565b915081905092915050565b60006020820190506120f16000830184611e62565b92915050565b600060608201905061210c6000830186611e62565b6121196020830185611e62565b61212660408301846120b6565b949350505050565b60006040820190506121436000830185611e62565b61215060208301846120b6565b9392505050565b600060608201905061216c6000830186611e62565b61217960208301856120b6565b6121866040830184611e62565b949350505050565b60006080820190506121a36000830187611e62565b6121b060208301866120b6565b6121bd6040830185611e62565b6121ca6060830184611eed565b95945050505050565b600060e0820190506121e8600083018a611e62565b6121f560208301896120b6565b61220260408301886120b6565b61220f60608301876120b6565b61221c60808301866120b6565b61222960a08301856120b6565b61223660c08301846120b6565b98975050505050505050565b60006020820190506122576000830184611ea2565b92915050565b60006020820190506122726000830184611eb1565b92915050565b600060208201905061228d6000830184611ec0565b92915050565b60006020820190506122a86000830184611ecf565b92915050565b60006020820190506122c36000830184611ede565b92915050565b600060208201905081810360008301526122e38184611efc565b905092915050565b6000602082019050818103600083015261230481611f35565b9050919050565b6000602082019050818103600083015261232481611f58565b9050919050565b6000602082019050818103600083015261234481611f7b565b9050919050565b6000602082019050818103600083015261236481611f9e565b9050919050565b6000602082019050818103600083015261238481611fc1565b9050919050565b600060208201905081810360008301526123a481611fe4565b9050919050565b600060208201905081810360008301526123c481612007565b9050919050565b600060208201905081810360008301526123e48161202a565b9050919050565b600060208201905081810360008301526124048161204d565b9050919050565b6000602082019050818103600083015261242481612070565b9050919050565b6000602082019050818103600083015261244481612093565b9050919050565b600060208201905061246060008301846120b6565b92915050565b600060408201905061247b60008301856120b6565b61248860208301846120b6565b9392505050565b600081519050919050565b600081519050919050565b600081905092915050565b600082825260208201905092915050565b60006124cc82612634565b91506124d783612634565b9250827fffffffffffffffffffffffffffffffffffffffffffffffffffffffffffffffff0382111561250c5761250b612737565b5b828201905092915050565b600061252282612634565b915061252d83612634565b92508261253d5761253c612766565b5b828204905092915050565b600061255382612634565b915061255e83612634565b9250817fffffffffffffffffffffffffffffffffffffffffffffffffffffffffffffffff048311821515161561259757612596612737565b5b828202905092915050565b60006125ad82612634565b91506125b883612634565b9250828210156125cb576125ca612737565b5b828203905092915050565b60006125e182612614565b9050919050565b60008115159050919050565b60006125ff826125d6565b9050919050565b600061ffff82169050919050565b600073ffffffffffffffffffffffffffffffffffffffff82169050919050565b6000819050919050565b600061264982612650565b9050919050565b600061265b82612614565b9050919050565b600061266d82612674565b9050919050565b600061267f82612614565b9050919050565b600061269182612698565b9050919050565b60006126a382612614565b9050919050565b60006126b5826126bc565b9050919050565b60006126c782612614565b9050919050565b60006126d9826126e0565b9050919050565b60006126eb82612614565b9050919050565b60006126fd82612606565b9050919050565b60005b83811015612722578082015181840152602081019050612707565b83811115612731576000848401525b50505050565b7f4e487b7100000000000000000000000000000000000000000000000000000000600052601160045260246000fd5b7f4e487b7100000000000000000000000000000000000000000000000000000000600052601260045260246000fd5b6000601f19601f8301169050919050565b7f4f776e61626c653a206e6577206f776e657220697320746865207a65726f206160008201527f6464726573730000000000000000000000000000000000000000000000000000602082015250565b7f4c5020616d6f756e742069732030000000000000000000000000000000000000600082015250565b7f526573657276652066756e647320746f6f206c6f770000000000000000000000600082015250565b7f43616c6c6572206973206e6f742072657061796d656e7420706f6f6c00000000600082015250565b7f416464726573733a20696e73756666696369656e742062616c616e636520666f60008201527f722063616c6c0000000000000000000000000000000000000000000000000000602082015250565b7f4f776e61626c653a2063616c6c6572206973206e6f7420746865206f776e6572600082015250565b7f4465706f73697420616d6f756e74206973203000000000000000000000000000600082015250565b7f4465706f73697420616d6f756e7420657863656564732072657365727665206260008201527f616c616e63650000000000000000000000000000000000000000000000000000602082015250565b7f416464726573733a2063616c6c20746f206e6f6e2d636f6e7472616374000000600082015250565b7f5769746864726177616c20616d6f756e7420657863656564732061555344432060008201527f62616c616e636500000000000000000000000000000000000000000000000000602082015250565b7f5361666545524332303a204552433230206f7065726174696f6e20646964206e60008201527f6f74207375636365656400000000000000000000000000000000000000000000602082015250565b612a30816125d6565b8114612a3b57600080fd5b50565b612a47816125e8565b8114612a5257600080fd5b50565b612a5e816125f4565b8114612a6957600080fd5b50565b612a7581612634565b8114612a8057600080fd5b5056fea26469706673582212205163c6d8cbc606c46044d1d68f3ab2a7a40a70fdc3dfe8a793e99fd9c0d9b9bb64736f6c63430008040033",
    "linkReferences": {},
    "deployedLinkReferences": {}
}