{
    "_format": "hh-sol-artifact-1",
    "contractName": "RepaymentPool",
    "sourceName": "contracts/RepaymentPool.sol",
    "abi": [
        {
            "inputs": [
                {
                    "internalType": "contract IERC20",
                    "name": "_usdc",
                    "type": "address"
                },
                {
                    "internalType": "contract ICustodian",
                    "name": "_custodian",
                    "type": "address"
                }
            ],
            "stateMutability": "nonpayable",
            "type": "constructor"
        },
        {
            "anonymous": false,
            "inputs": [
                {
                    "indexed": true,
                    "internalType": "uint256",
                    "name": "dealId",
                    "type": "uint256"
                }
            ],
            "name": "DealCreated",
            "type": "event"
        },
        {
            "anonymous": false,
            "inputs": [
                {
                    "indexed": true,
                    "internalType": "address",
                    "name": "previousOwner",
                    "type": "address"
                },
                {
                    "indexed": true,
                    "internalType": "address",
                    "name": "newOwner",
                    "type": "address"
                }
            ],
            "name": "OwnershipTransferred",
            "type": "event"
        },
        {
            "anonymous": false,
            "inputs": [
                {
                    "indexed": true,
                    "internalType": "uint256",
                    "name": "dealId",
                    "type": "uint256"
                },
                {
                    "indexed": false,
                    "internalType": "uint256",
                    "name": "principal",
                    "type": "uint256"
                },
                {
                    "indexed": false,
                    "internalType": "uint256",
                    "name": "interest",
                    "type": "uint256"
                }
            ],
            "name": "Repayment",
            "type": "event"
        },
        {
            "inputs": [
                {
                    "internalType": "uint256",
                    "name": "totalAmount",
                    "type": "uint256"
                },
                {
                    "internalType": "uint256",
                    "name": "startTime",
                    "type": "uint256"
                },
                {
                    "internalType": "uint256",
                    "name": "endTime",
                    "type": "uint256"
                },
                {
                    "internalType": "uint16",
                    "name": "installments",
                    "type": "uint16"
                },
                {
                    "internalType": "uint16",
                    "name": "interestRate",
                    "type": "uint16"
                },
                {
                    "internalType": "string",
                    "name": "description",
                    "type": "string"
                }
            ],
            "name": "createDeal",
            "outputs": [],
            "stateMutability": "nonpayable",
            "type": "function"
        },
        {
            "inputs": [],
            "name": "custodian",
            "outputs": [
                {
                    "internalType": "contract ICustodian",
                    "name": "",
                    "type": "address"
                }
            ],
            "stateMutability": "view",
            "type": "function"
        },
        {
            "inputs": [],
            "name": "getActiveDealIds",
            "outputs": [
                {
                    "internalType": "uint256[]",
                    "name": "",
                    "type": "uint256[]"
                }
            ],
            "stateMutability": "view",
            "type": "function"
        },
        {
            "inputs": [],
            "name": "getLastDealId",
            "outputs": [
                {
                    "internalType": "uint256",
                    "name": "",
                    "type": "uint256"
                }
            ],
            "stateMutability": "view",
            "type": "function"
        },
        {
            "inputs": [],
            "name": "owner",
            "outputs": [
                {
                    "internalType": "address",
                    "name": "",
                    "type": "address"
                }
            ],
            "stateMutability": "view",
            "type": "function"
        },
        {
            "inputs": [],
            "name": "renounceOwnership",
            "outputs": [],
            "stateMutability": "nonpayable",
            "type": "function"
        },
        {
            "inputs": [
                {
                    "internalType": "uint256",
                    "name": "dealId",
                    "type": "uint256"
                },
                {
                    "internalType": "uint256",
                    "name": "amount",
                    "type": "uint256"
                },
                {
                    "internalType": "uint256",
                    "name": "interest",
                    "type": "uint256"
                }
            ],
            "name": "repay",
            "outputs": [],
            "stateMutability": "nonpayable",
            "type": "function"
        },
        {
            "inputs": [
                {
                    "internalType": "address",
                    "name": "newOwner",
                    "type": "address"
                }
            ],
            "name": "transferOwnership",
            "outputs": [],
            "stateMutability": "nonpayable",
            "type": "function"
        },
        {
            "inputs": [],
            "name": "usdc",
            "outputs": [
                {
                    "internalType": "contract IERC20",
                    "name": "",
                    "type": "address"
                }
            ],
            "stateMutability": "view",
            "type": "function"
        }
    ],
    "bytecode": "0x60c06040523480156200001157600080fd5b5060405162001c9a38038062001c9a8339818101604052810190620000379190620001c7565b620000576200004b620000cd60201b60201c565b620000d560201b60201c565b8173ffffffffffffffffffffffffffffffffffffffff1660808173ffffffffffffffffffffffffffffffffffffffff1660601b815250508073ffffffffffffffffffffffffffffffffffffffff1660a08173ffffffffffffffffffffffffffffffffffffffff1660601b81525050505062000298565b600033905090565b60008060009054906101000a900473ffffffffffffffffffffffffffffffffffffffff169050816000806101000a81548173ffffffffffffffffffffffffffffffffffffffff021916908373ffffffffffffffffffffffffffffffffffffffff1602179055508173ffffffffffffffffffffffffffffffffffffffff168173ffffffffffffffffffffffffffffffffffffffff167f8be0079c531659141344cd1fd0a4f28419497f9722a3daafe3b4186f6b6457e060405160405180910390a35050565b600081519050620001aa8162000264565b92915050565b600081519050620001c1816200027e565b92915050565b60008060408385031215620001db57600080fd5b6000620001eb85828601620001b0565b9250506020620001fe8582860162000199565b9150509250929050565b6000620002158262000244565b9050919050565b6000620002298262000208565b9050919050565b60006200023d8262000208565b9050919050565b600073ffffffffffffffffffffffffffffffffffffffff82169050919050565b6200026f816200021c565b81146200027b57600080fd5b50565b620002898162000230565b81146200029557600080fd5b50565b60805160601c60a05160601c6119c1620002d96000396000818161033b015281816105c6015261063a01526000818161035f01526105f301526119c16000f3fe608060405234801561001057600080fd5b50600436106100935760003560e01c8063715018a611610066578063715018a614610110578063895a74851461011a5780638da5cb5b14610136578063bec5e09214610154578063f2fde38b1461017057610093565b8063026f11ec1461009857806322c9ad3e146100b6578063375b74c3146100d45780633e413bee146100f2575b600080fd5b6100a061018c565b6040516100ad91906112e8565b60405180910390f35b6100be610328565b6040516100cb9190611442565b60405180910390f35b6100dc610339565b6040516100e9919061130a565b60405180910390f35b6100fa61035d565b6040516101079190611325565b60405180910390f35b610118610381565b005b610134600480360381019061012f9190610f6f565b610409565b005b61013e6106ef565b60405161014b9190611296565b60405180910390f35b61016e60048036038101906101699190610fbe565b610718565b005b61018a60048036038101906101859190610f1d565b6108d0565b005b6060600080600190505b6101a060026109c8565b8110156101f9576001600082815260200190815260200160002060010154600160008381526020019081526020016000206000015410156101e857816101e5906116b7565b91505b806101f2906116b7565b9050610196565b5060008167ffffffffffffffff81111561023c577f4e487b7100000000000000000000000000000000000000000000000000000000600052604160045260246000fd5b60405190808252806020026020018201604052801561026a5781602001602082028036833780820191505090505b509050600080600190505b61027f60026109c8565b81101561031e5760016000828152602001908152602001600020600101546001600083815260200190815260200160002060000154101561030d57808383815181106102f4577f4e487b7100000000000000000000000000000000000000000000000000000000600052603260045260246000fd5b6020026020010181815250508161030a906116b7565b91505b80610317906116b7565b9050610275565b5081935050505090565b600061033460026109c8565b905090565b7f000000000000000000000000000000000000000000000000000000000000000081565b7f000000000000000000000000000000000000000000000000000000000000000081565b6103896109d6565b73ffffffffffffffffffffffffffffffffffffffff166103a76106ef565b73ffffffffffffffffffffffffffffffffffffffff16146103fd576040517f08c379a00000000000000000000000000000000000000000000000000000000081526004016103f4906113e2565b60405180910390fd5b61040760006109de565b565b6000600160008581526020019081526020016000206040518061010001604052908160008201548152602001600182015481526020016002820154815260200160038201548152602001600482015481526020016005820160009054906101000a900461ffff1661ffff1661ffff1681526020016005820160029054906101000a900461ffff1661ffff1661ffff1681526020016006820180546104ac90611654565b80601f01602080910402602001604051908101604052809291908181526020018280546104d890611654565b80156105255780601f106104fa57610100808354040283529160200191610525565b820191906000526020600020905b81548152906001019060200180831161050857829003601f168201915b505050505081525050905083816080015114610576576040517f08c379a000000000000000000000000000000000000000000000000000000000815260040161056d90611362565b60405180910390fd5b80602001518160000151106105c0576040517f08c379a00000000000000000000000000000000000000000000000000000000081526004016105b790611382565b60405180910390fd5b610638337f000000000000000000000000000000000000000000000000000000000000000084866105f1919061151e565b7f000000000000000000000000000000000000000000000000000000000000000073ffffffffffffffffffffffffffffffffffffffff16610aa2909392919063ffffffff16565b7f000000000000000000000000000000000000000000000000000000000000000073ffffffffffffffffffffffffffffffffffffffff166304d05ab2846040518263ffffffff1660e01b81526004016106919190611442565b600060405180830381600087803b1580156106ab57600080fd5b505af11580156106bf573d6000803e3d6000fd5b5050505081836106cf919061151e565b600160008681526020019081526020016000206000018190555050505050565b60008060009054906101000a900473ffffffffffffffffffffffffffffffffffffffff16905090565b6107206109d6565b73ffffffffffffffffffffffffffffffffffffffff1661073e6106ef565b73ffffffffffffffffffffffffffffffffffffffff1614610794576040517f08c379a000000000000000000000000000000000000000000000000000000000815260040161078b906113e2565b60405180910390fd5b61079e6002610b2b565b60006107aa60026109c8565b9050604051806101000160405280600081526020018881526020018781526020018681526020018281526020018561ffff1681526020018461ffff1681526020018381525060016000838152602001908152602001600020600082015181600001556020820151816001015560408201518160020155606082015181600301556080820151816004015560a08201518160050160006101000a81548161ffff021916908361ffff16021790555060c08201518160050160026101000a81548161ffff021916908361ffff16021790555060e0820151816006019080519060200190610896929190610dbe565b50905050807f47949ea802e880552eec1156acc6bcd581993c72b5c0939fbab6bcbba2835f1c60405160405180910390a250505050505050565b6108d86109d6565b73ffffffffffffffffffffffffffffffffffffffff166108f66106ef565b73ffffffffffffffffffffffffffffffffffffffff161461094c576040517f08c379a0000000000000000000000000000000000000000000000000000000008152600401610943906113e2565b60405180910390fd5b600073ffffffffffffffffffffffffffffffffffffffff168173ffffffffffffffffffffffffffffffffffffffff1614156109bc576040517f08c379a00000000000000000000000000000000000000000000000000000000081526004016109b3906113a2565b60405180910390fd5b6109c5816109de565b50565b600081600001549050919050565b600033905090565b60008060009054906101000a900473ffffffffffffffffffffffffffffffffffffffff169050816000806101000a81548173ffffffffffffffffffffffffffffffffffffffff021916908373ffffffffffffffffffffffffffffffffffffffff1602179055508173ffffffffffffffffffffffffffffffffffffffff168173ffffffffffffffffffffffffffffffffffffffff167f8be0079c531659141344cd1fd0a4f28419497f9722a3daafe3b4186f6b6457e060405160405180910390a35050565b610b25846323b872dd60e01b858585604051602401610ac3939291906112b1565b604051602081830303815290604052907bffffffffffffffffffffffffffffffffffffffffffffffffffffffff19166020820180517bffffffffffffffffffffffffffffffffffffffffffffffffffffffff8381831617835250505050610b41565b50505050565b6001816000016000828254019250508190555050565b6000610ba3826040518060400160405280602081526020017f5361666545524332303a206c6f772d6c6576656c2063616c6c206661696c65648152508573ffffffffffffffffffffffffffffffffffffffff16610c089092919063ffffffff16565b9050600081511115610c035780806020019051810190610bc39190610f46565b610c02576040517f08c379a0000000000000000000000000000000000000000000000000000000008152600401610bf990611422565b60405180910390fd5b5b505050565b6060610c178484600085610c20565b90509392505050565b606082471015610c65576040517f08c379a0000000000000000000000000000000000000000000000000000000008152600401610c5c906113c2565b60405180910390fd5b610c6e85610d34565b610cad576040517f08c379a0000000000000000000000000000000000000000000000000000000008152600401610ca490611402565b60405180910390fd5b6000808673ffffffffffffffffffffffffffffffffffffffff168587604051610cd6919061127f565b60006040518083038185875af1925050503d8060008114610d13576040519150601f19603f3d011682016040523d82523d6000602084013e610d18565b606091505b5091509150610d28828286610d57565b92505050949350505050565b6000808273ffffffffffffffffffffffffffffffffffffffff163b119050919050565b60608315610d6757829050610db7565b600083511115610d7a5782518084602001fd5b816040517f08c379a0000000000000000000000000000000000000000000000000000000008152600401610dae9190611340565b60405180910390fd5b9392505050565b828054610dca90611654565b90600052602060002090601f016020900481019282610dec5760008555610e33565b82601f10610e0557805160ff1916838001178555610e33565b82800160010185558215610e33579182015b82811115610e32578251825591602001919060010190610e17565b5b509050610e409190610e44565b5090565b5b80821115610e5d576000816000905550600101610e45565b5090565b6000610e74610e6f84611482565b61145d565b905082815260208101848484011115610e8c57600080fd5b610e97848285611612565b509392505050565b600081359050610eae8161192f565b92915050565b600081519050610ec381611946565b92915050565b600082601f830112610eda57600080fd5b8135610eea848260208601610e61565b91505092915050565b600081359050610f028161195d565b92915050565b600081359050610f1781611974565b92915050565b600060208284031215610f2f57600080fd5b6000610f3d84828501610e9f565b91505092915050565b600060208284031215610f5857600080fd5b6000610f6684828501610eb4565b91505092915050565b600080600060608486031215610f8457600080fd5b6000610f9286828701610f08565b9350506020610fa386828701610f08565b9250506040610fb486828701610f08565b9150509250925092565b60008060008060008060c08789031215610fd757600080fd5b6000610fe589828a01610f08565b9650506020610ff689828a01610f08565b955050604061100789828a01610f08565b945050606061101889828a01610ef3565b935050608061102989828a01610ef3565b92505060a087013567ffffffffffffffff81111561104657600080fd5b61105289828a01610ec9565b9150509295509295509295565b600061106b8383611261565b60208301905092915050565b61108081611574565b82525050565b6000611091826114c3565b61109b81856114f1565b93506110a6836114b3565b8060005b838110156110d75781516110be888261105f565b97506110c9836114e4565b9250506001810190506110aa565b5085935050505092915050565b60006110ef826114ce565b6110f98185611502565b9350611109818560208601611621565b80840191505092915050565b61111e816115ca565b82525050565b61112d816115ee565b82525050565b600061113e826114d9565b611148818561150d565b9350611158818560208601611621565b6111618161178d565b840191505092915050565b6000611179600f8361150d565b91506111848261179e565b602082019050919050565b600061119c60148361150d565b91506111a7826117c7565b602082019050919050565b60006111bf60268361150d565b91506111ca826117f0565b604082019050919050565b60006111e260268361150d565b91506111ed8261183f565b604082019050919050565b600061120560208361150d565b91506112108261188e565b602082019050919050565b6000611228601d8361150d565b9150611233826118b7565b602082019050919050565b600061124b602a8361150d565b9150611256826118e0565b604082019050919050565b61126a816115c0565b82525050565b611279816115c0565b82525050565b600061128b82846110e4565b915081905092915050565b60006020820190506112ab6000830184611077565b92915050565b60006060820190506112c66000830186611077565b6112d36020830185611077565b6112e06040830184611270565b949350505050565b600060208201905081810360008301526113028184611086565b905092915050565b600060208201905061131f6000830184611115565b92915050565b600060208201905061133a6000830184611124565b92915050565b6000602082019050818103600083015261135a8184611133565b905092915050565b6000602082019050818103600083015261137b8161116c565b9050919050565b6000602082019050818103600083015261139b8161118f565b9050919050565b600060208201905081810360008301526113bb816111b2565b9050919050565b600060208201905081810360008301526113db816111d5565b9050919050565b600060208201905081810360008301526113fb816111f8565b9050919050565b6000602082019050818103600083015261141b8161121b565b9050919050565b6000602082019050818103600083015261143b8161123e565b9050919050565b60006020820190506114576000830184611270565b92915050565b6000611467611478565b90506114738282611686565b919050565b6000604051905090565b600067ffffffffffffffff82111561149d5761149c61175e565b5b6114a68261178d565b9050602081019050919050565b6000819050602082019050919050565b600081519050919050565b600081519050919050565b600081519050919050565b6000602082019050919050565b600082825260208201905092915050565b600081905092915050565b600082825260208201905092915050565b6000611529826115c0565b9150611534836115c0565b9250827fffffffffffffffffffffffffffffffffffffffffffffffffffffffffffffffff0382111561156957611568611700565b5b828201905092915050565b600061157f826115a0565b9050919050565b60008115159050919050565b600061ffff82169050919050565b600073ffffffffffffffffffffffffffffffffffffffff82169050919050565b6000819050919050565b60006115d5826115dc565b9050919050565b60006115e7826115a0565b9050919050565b60006115f982611600565b9050919050565b600061160b826115a0565b9050919050565b82818337600083830152505050565b60005b8381101561163f578082015181840152602081019050611624565b8381111561164e576000848401525b50505050565b6000600282049050600182168061166c57607f821691505b602082108114156116805761167f61172f565b5b50919050565b61168f8261178d565b810181811067ffffffffffffffff821117156116ae576116ad61175e565b5b80604052505050565b60006116c2826115c0565b91507fffffffffffffffffffffffffffffffffffffffffffffffffffffffffffffffff8214156116f5576116f4611700565b5b600182019050919050565b7f4e487b7100000000000000000000000000000000000000000000000000000000600052601160045260246000fd5b7f4e487b7100000000000000000000000000000000000000000000000000000000600052602260045260246000fd5b7f4e487b7100000000000000000000000000000000000000000000000000000000600052604160045260246000fd5b6000601f19601f8301169050919050565b7f496e76616c6964206465616c2049440000000000000000000000000000000000600082015250565b7f4465616c20686173206265656e20726570616964000000000000000000000000600082015250565b7f4f776e61626c653a206e6577206f776e657220697320746865207a65726f206160008201527f6464726573730000000000000000000000000000000000000000000000000000602082015250565b7f416464726573733a20696e73756666696369656e742062616c616e636520666f60008201527f722063616c6c0000000000000000000000000000000000000000000000000000602082015250565b7f4f776e61626c653a2063616c6c6572206973206e6f7420746865206f776e6572600082015250565b7f416464726573733a2063616c6c20746f206e6f6e2d636f6e7472616374000000600082015250565b7f5361666545524332303a204552433230206f7065726174696f6e20646964206e60008201527f6f74207375636365656400000000000000000000000000000000000000000000602082015250565b61193881611574565b811461194357600080fd5b50565b61194f81611586565b811461195a57600080fd5b50565b61196681611592565b811461197157600080fd5b50565b61197d816115c0565b811461198857600080fd5b5056fea2646970667358221220774d5e337e21a0d6e580c5bfdf09844b40cd16f937dcb4977a2c666d4ac573c564736f6c63430008040033",
    "linkReferences": {},
    "deployedLinkReferences": {}
}